:020000000AC034
:140012003AC00000CFE9D0E0CDBFDEBFCE51D0400AEA0883A1
:140026000024E2E6F0E010E0E236F10711F00192FBCF008329
:14003A00E4E1F0E0A0E6B0E010E000E00BBFE631F10721F04D
:14004E00C89531960D92F9CF3AD0FFCF0150104081E090E0C9
:1400620080179107C8F3089587E088BB8FE087BB08952224C5
:1400760026B882E487B980E888B923B88AEE86B908952A925E
:14008A003A920A931A932FB62A9204B1112725B03324322C34
:14009E00222402291329109361000093600029902FBE19915A
:1400B2000991399029901895F894D6DFDADF222425BE29BE67
:1400C6002BBE789408952497F5DF08EC10E0C2DF3BC080E025
:1400DA00888389838A838B83AA2417C0C0906000D0906100CA
:1400EE00160144245524688079808A809B80620C731C841C63
:14010200951C688279828A829B8204E610E0A4DFA3948A2DDF
:14011600883C30F348EC50E060E070E0088119812A813B8170
:14012A007A936A935A934A9310D058018DE290E080179107A6
:14013E0008F4C398C5018431E0E09E0708F4C39AC4CF2496D0
:140152000895E89401C068942FD0CC2408C0E89401C06894D3
:1401660029D037FD5CD0B7FD51D0772488249924AA24BB24A6
:14017A0041D0C1F044D0B1F0E8E2000F111F221F331F771CCB
:14018E00881C991CAA1CBB1C88169906AA06BB0628F0881AFF
:1401A200990AAA0ABB0A0395EA9559F726F4082D192D2A2DDA
:1401B6003B2D13C07A928A929A92AA92BA92CA92EA938A9328
:1401CA009A93AA93BA938B859C85AD85BE85C32E0EF0CB26E4
:1401DE000895C7FC20D0B991A99199918991E991C990B990D9
:1401F200A99099908990799024960895E02FE12BE22BE32BE8
:140206000895E82FE92BEA2BEB2B089580959095A095B095A0
:14021A008F5F9F4FAF4FBF4F089500951095209530950F5F29
:08022E001F4F2F4F3F4F0895B1
:00000001FF
